{
    "contractName": "SimpleListContract",
    "abi": [
        {
            "inputs": [
                {
                    "internalType": "address",
                    "name": "_address",
                    "type": "address"
                }
            ],
            "name": "addPerson",
            "outputs": [],
            "stateMutability": "nonpayable",
            "type": "function"
        },
        {
            "inputs": [],
            "name": "getPeople",
            "outputs": [
                {
                    "internalType": "address[]",
                    "name": "",
                    "type": "address[]"
                }
            ],
            "stateMutability": "view",
            "type": "function"
        },
        {
            "inputs": [
                {
                    "internalType": "uint256",
                    "name": "",
                    "type": "uint256"
                }
            ],
            "name": "people",
            "outputs": [
                {
                    "internalType": "address",
                    "name": "",
                    "type": "address"
                }
            ],
            "stateMutability": "view",
            "type": "function"
        },
        {
            "inputs": [
                {
                    "internalType": "address",
                    "name": "_value",
                    "type": "address"
                }
            ],
            "name": "removePerson",
            "outputs": [],
            "stateMutability": "nonpayable",
            "type": "function"
        }
    ],
    "bytecode": "608060405234801561001057600080fd5b50610430806100206000396000f3fe608060405234801561001057600080fd5b506004361061004c5760003560e01c80634af82e50146100515780634f995d08146100665780639e7a13ad14610084578063bc672a38146100af575b600080fd5b61006461005f366004610325565b61010c565b005b61006e6101df565b60405161007b9190610355565b60405180910390f35b6100976100923660046103a2565b610241565b6040516001600160a01b03909116815260200161007b565b6100646100bd366004610325565b600080546001810182559080527f290decd9548b62a8d60345a988386fc84ba6bc95484008f6362f93160ef3e5630180546001600160a01b0319166001600160a01b0392909216919091179055565b606060005b6000548110156101b557826001600160a01b031660008281548110610138576101386103bb565b6000918252602090912001546001600160a01b0316146101a357600160008281548110610167576101676103bb565b60009182526020808320909101548354600181018555938352912090910180546001600160a01b0319166001600160a01b039092169190911790555b806101ad816103d1565b915050610111565b50600180546101c69160009161026b565b5080516101da9060019060208401906102bb565b505050565b6060600080548060200260200160405190810160405280929190818152602001828054801561023757602002820191906000526020600020905b81546001600160a01b03168152600190910190602001808311610219575b5050505050905090565b6000818154811061025157600080fd5b6000918252602090912001546001600160a01b0316905081565b8280548282559060005260206000209081019282156102ab5760005260206000209182015b828111156102ab578254825591600101919060010190610290565b506102b7929150610310565b5090565b8280548282559060005260206000209081019282156102ab579160200282015b828111156102ab57825182546001600160a01b0319166001600160a01b039091161782556020909201916001909101906102db565b5b808211156102b75760008155600101610311565b60006020828403121561033757600080fd5b81356001600160a01b038116811461034e57600080fd5b9392505050565b6020808252825182820181905260009190848201906040850190845b818110156103965783516001600160a01b031683529284019291840191600101610371565b50909695505050505050565b6000602082840312156103b457600080fd5b5035919050565b634e487b7160e01b600052603260045260246000fd5b60006000198214156103f357634e487b7160e01b600052601160045260246000fd5b506001019056fea2646970667358221220045d68808e2a30b9c7d23499bd07c849c810b8b00be98c4e2c4b82d0537b433564736f6c634300080b0033",
    "sourcePath": "/Users/chiziaruhoma/projects/web3/flutter_solidity/contracts/list.sol",
    "compiler": {
        "name": "solc",
        "version": "0.8.11+commit.d7f03943"
    },
    "functionHashes": {
        "addPerson(address)": "bc672a38",
        "getPeople()": "4f995d08",
        "people(uint256)": "9e7a13ad",
        "removePerson(address)": "4af82e50"
    },
    "gasEstimates": {
        "creation": {
            "codeDepositCost": "214400",
            "executionCost": "257",
            "totalCost": "214657"
        },
        "external": {
            "addPerson(address)": "48798",
            "getPeople()": "infinite",
            "people(uint256)": "4636",
            "removePerson(address)": "infinite"
        }
    }
}